:10000000DF2CFF3FFF3F0D3083120313FD00FD0B7C
:10001000072808000000000000000000080003207E
:1000200006160320061208007F30831203172405EA
:10003000F1007108A400711F2028061486102228E0
:1000400006108614080083120313FB01FA01F9015C
:100050008030F800F10CF00C031C37287408F90705
:1000600075080318750FFA070318FB0A0310F01F31
:100070003F287408FA0775080318750FFB07FB0C77
:10008000FA0CF90CF80C031C2A287B08F3007A08F8
:10009000F2007908F1007808F000080083120313D9
:1000A00006118611B83003172404031387000F20AC
:1000B0000800710DF80DF90D7408F8027508031C9D
:1000C000750FF902F00DF10D0F30FC00710DF80DF8
:1000D000F90D7408701C7228F8027508031C750F5E
:1000E000F9027728F80775080318750FF907F00D5E
:1000F000F10DFC0B6628701883287408F807750842
:100100000318750FF907000008008312031322304B
:10011000FC00F801F901FA01FB01FC030319BB28FB
:100120000310FB0CFA0CF90CF80CF30CF20CF10CAC
:10013000F00C031C8D28FC030319AD287408F80784
:1001400075080318750FF90776080318760FFA0774
:1001500077080318770FFB0791287408F8077508CC
:100160000318750FF90776080318760FFA07770852
:100170000318770FFB0708008312031306120615F6
:10018000861103172408031387000F200800831229
:10019000031360088A005F088200080083120317B7
:1001A00024080313EA00031725080313EB00EC01EE
:1001B000ED010130E40008007F30831203172405AD
:1001C000F0007008A40006118611BF30F005700819
:1001D000A40070177008A4007008031387000F2094
:1001E0000800803083120313F0007008073E84007B
:1001F000FF3080000A200A20061506128615061612
:10020000032007080317A400061286110A200A20FB
:100210008030F0007008073E840080012408F00060
:100220000800831203137408003A031D202975087F
:10023000003A031D2029FF30F0007F30F1007929BA
:1002400083120313FD01F901F80171087004031909
:10025000003471087506FA00FA1BFD09FB01F51F51
:100260003629F409F509F40A0319F50AF11F3D29A5
:10027000F009F109F00A0319F10A71087504FA008E
:10028000FA1B522959207B186529FD1F0034F009FB
:10029000F109F00A0319F10AF809F909F80A031932
:1002A000F90A0034F51F6129F11B5D297108F90075
:1002B0007008F800F101F0014529F101F001F00AA0
:1002C0000034F109F009FB0A4229F80A0319F90A76
:1002D00074087802031D452975087902031D452914
:1002E000F901F801F00A0319F10AF11F452900008C
:1002F000FF340800831203171C08073C03188129E8
:10030000212A0313650803171A02F0000313660875
:10031000031C013EF101F1026208F400F501232003
:1003200070080317A2007108A3001B08A400DC20BA
:1003300003171C08A4004E2003179E010313620834
:1003400003171E020318FC291B087F3C0318A92968
:10035000212A1B08A40014201C08A4004E20031707
:100360001B08A400DC20F12070089F00F120700819
:100370009F001B08A40014201C08A4004E20031793
:100380001B08A400DC200317220803136707F000F2
:1003900068080318013E03172307F10070080313D0
:1003A000DF007108E000C7208A110A12F00070080F
:1003B0000317A000A20A0319A30A7009A100E929E2
:1003C00021089F00F52920089F00F52920089F0695
:1003D000F5291D08003A0319E0291D08013A0319FF
:1003E000E3291D08023A0319E6291F08A400BC20CE
:1003F00003179B0A9E0A9E291B08A40014201C08B0
:10040000A4004E2003171B08A400DC20FF300317B4
:10041000A000A101182A20089F002008A400BC20E9
:10042000212A031721089F002108A400BC20212AAB
:1004300003171D08003A03190B2A1D08013A031976
:10044000112A08000030831203171A02031C352AF0
:100450001A087F3C031C352A00301B02031C352A76
:100460001B083F3C031C352A362A872A1A08A40099
:1004700014201B08A400A40CA413A40CA413A40C03
:10048000A4134E2003171A08A400DC20F1207008E2
:100490009F00F12070089F001B08A400A40CA41367
:1004A000A40CA413A40CA4134E2003171A08A40030
:1004B000DC20073003171B05F00070089D00700852
:1004C000F1000130F000710803196A2AF00D701074
:1004D000FF3E642A70089D0070099E00782A1E085D
:1004E0009F05842A1D089F04842A1D089F06842ACC
:1004F0001C08003A03196F2A1C08013A0319722AD2
:100500001C08023A0319752A1F08A400BC20080021
:10051000831203136408031D932A01300317A400F8
:100520000030A500CE206A08F0006B08F1006C08CE
:10053000F2006D08F3006D30F4004E30F500C63067
:10054000F6004130F70085203930F5003030F600F4
:10055000F701F8017008F50771080318710FF60725
:1005600072080318720FF70773080318730FF80760
:100570007708F0007808F1000030F81BFF30F20037
:10058000F300FF30F0057F30F1050030F205F30590
:100590007008EA007108EB007208EC007308ED00C7
:1005A00008000030831203171702031CDC2A170807
:1005B0003F3C031CDC2ADD2A0C2B003015020318FB
:1005C000E22A950115087F3C0318E82A7F30950040
:1005D000003016020318ED2A960116087F3C031816
:1005E000F32A7F309600150816020318FD2A150815
:1005F0009900160895001908960015081602031CA4
:100600000C2B15089A0017089B0018089C00222242
:1006100083120317950AFD2A080088220830F40087
:100620000130F5001121700ADD008822BC30F40091
:100630000230F5001121F00A7008DE005D08031792
:100640009A0070089B0001309C00222208000030B4
:10065000831203171702031C322B17087F3C031C5D
:10066000322B332B622B003015020318382B9501E7
:1006700015083F3C03183E2B3F3095000030160212
:100680000318432B960116083F3C0318492B3F30B3
:100690009600150816020318532B15089900160822
:1006A00095001908960015081602031C622B1708FE
:1006B0009A0015089B0018089C0022228312031739
:1006C000950A532B080083120313F8010830FC002D
:1006D000700DF80D7408F8020318702BF80703105A
:1006E000F00DFC0B682B0800831203130610861410
:1006F000031797011708073C031C8F2B1708A4004A
:100700004E200317960116083F3C031C8D2B15083D
:10071000A400BC200317960A832B970A7A2B861015
:10072000061497011708073C031CA72B1708A40001
:100730004E200317960116083F3C031CA52B1508F5
:10074000A400BC200317960A9B2B970A922B080043
:1007500088220830F4000130F5001121700AB6003B
:100760008822BC30F4000230F5001121700AD2005A
:10077000080083120317990103136308003A031D4D
:10078000CD2B0530E2000730E9000030E7000830EB
:10079000E8002030E5000030E600031719081507CF
:1007A000840000080319E92B1908150784000008C4
:1007B0009A0016089B0017089C0018089D007A21D3
:1007C00083120313620AF000700803179607990A50
:1007D000CD2B08008312031710089500120896000D
:1007E0001108970014089800D122100895001208EB
:1007F00096001308970014089800D122110895005C
:100800001308960010089700140898002723110871
:1008100095001308960012089700140898002723E3
:10082000080083120313B30A0D2383120313E10A92
:1008300007303207EF000A30F4006108F00063234C
:100840003030F0076F0884007008800008303207ED
:10085000EF000A30F4006108F00063237808F0002C
:100860003030F0076F0884007008800032080317EA
:100870009500463096000730970001309800B92364
:1008800005300313B402031CB503080083120317D9
:100890001108003C031D4E2C1008003C03185E2C70
:1008A0000630FC003030FD00FD0B542CFC0B542CAA
:1008B000000001309002031C9103462C0800053013
:1008C00083120313B300A823E10108303207840028
:1008D000303080000330B100FF30031795007423DF
:1008E0002030950019309600033097009801B92305
:1008F0002930FB009630FC007F30FD00FD0B7E2C84
:10090000FC0B7E2CFB0B7E2CA82303179501742374
:1009100001300313B000080083120313E3018316B0
:100920008612061206118611061086108312861290
:100930008030F0007008073E8400800106118611A7
:100940000610861486163F3087000F20C0308700BF
:100950000F20061486103F3087000F20C03087001C
:100960000F200800C7208A110A128000840ADF0ABB
:100970000319E00AF003031DB22C0800FF308312B4
:100980000317950074233730950019309600033013
:1009900097009801B9231530FB004B30FC00BE30A6
:1009A000FD00FD0BD12CFC0BD12CFB0BD12C00003E
:1009B000950174230D2383120313B0010800C4278B
:1009C000FF308316031388008C24C830B400B501AF
:1009D000BE240317900191017F30920032309300C2
:1009E00001309400EA2305300313B30033081E3CA2
:1009F000031C5B2F3008031D5B2F081E012D5F2495
:100A00005B2F881D052D0230B100081D092D043013
:100A1000B100881C0D2D0530B100081C112D0330CC
:100A2000B100340803179000031335080317910031
:100A30004624102F0313B603013036020318222D6B
:100A40005F24222F01303302F300F401031CF4036E
:100A50007308F0007408F100F00DF10D7010A03073
:100A6000F007700A84005208800001303302F3005E
:100A7000F401031CF4037308F0007408F100F00D96
:100A8000F10D70107008A03E840036088000EE0161
:100A900001303302F100F201031CF2038030F00058
:100AA000803072067002031D572D71086E02031804
:100AB000972D6E08F000F00D7010A030F007700A4E
:100AC000F5006E08013EF300F4010318F40A730800
:100AD000F0007408F100F00DF10D7010A030F00777
:100AE000700A84000008F000750884007008800017
:100AF0006E08F000F00D70107008A03EF5006E0852
:100B0000013EF300F4010318F40A7308F0007408BE
:100B1000F100F00DF10D70107008A03E8400000887
:100B2000F0007508840070088000EE0A482D222F1E
:100B3000D2030130520203189F2D5F24222F01306F
:100B40003302F300F401031CF4037308F00074088B
:100B5000F100F00DF10D7010A030F007700A840064
:100B60005208800001303302F300F401031CF40347
:100B70007308F0007408F100F00DF10D70107008AA
:100B8000A03E840036088000EE0101303302F100FF
:100B9000F201031CF2038030F00080307206700214
:100BA000031DD42D71086E020318142E6E08F00078
:100BB000F00D7010A030F007700AF5006E08013ECD
:100BC000F300F4010318F40A7308F0007408F1004C
:100BD000F00DF10D7010A030F007700A84000008CD
:100BE000F00075088400700880006E08F000F00DB9
:100BF00070107008A03EF5006E08013EF300F4018D
:100C00000318F40A7308F0007408F100F00DF10DF8
:100C100070107008A03E84000008F0007508840081
:100C200070088000EE0AC52D222FB60A36087E3CD9
:100C300003181C2E5F24222F01303302F300F4012D
:100C4000031CF4037308F0007408F100F00DF10DBB
:100C50007010A030F007700A840052088000013044
:100C60003302F300F401031CF4037308F00074086A
:100C7000F100F00DF10D70107008A03E84003608F0
:100C80008000EE0101303302F100F201031CF20397
:100C90008030F000803072067002031D512E710802
:100CA0006E020318912E6E08F000F00D701070089F
:100CB000A03EF5006E08013EF300F4010318F40AAB
:100CC0007308F0007408F100F00DF10D7010700859
:100CD000A03E84000008F0007508840070088000C1
:100CE0006E08F000F00D7010A030F007700AF500EB
:100CF0006E08013EF300F4010318F40A7308F000D3
:100D00007408F100F00DF10D7010A030F007700ABA
:100D100084000008F0007508840070088000EE0A66
:100D2000422E222FD20A5208313C0318992E5F24FA
:100D3000222F01303302F300F401031CF403730883
:100D4000F0007408F100F00DF10D7010A030F00704
:100D5000700A84005208800001303302F300F4016D
:100D6000031CF4037308F0007408F100F00DF10D9A
:100D700070107008A03E840036088000EE0101303B
:100D80003302F100F201031CF2038030F0008030E6
:100D900072067002031DCE2E71086E0203180E2F0C
:100DA0006E08F000F00D7010A030F007700AF5002A
:100DB0006E08013EF300F4010318F40A7308F00012
:100DC0007408F100F00DF10D7010A030F007700AFA
:100DD00084000008F00075088400700880006E0828
:100DE000F000F00D70107008A03EF5006E08013E96
:100DF000F300F4010318F40A7308F0007408F1001A
:100E0000F00DF10D70107008A03E84000008F00095
:100E10007508840070088000EE0ABF2E222F222F52
:100E200003133108023A03191A2D3108043A031941
:100E3000982D3108053A0319152E3108033A031984
:100E4000922E0F2F3008031D592FEE0133086E022A
:100E50000318402F6E08F000F00D7010A030F0075E
:100E600070088400000803179A00700A84000008C4
:100E70009B0001309C00222283120313EE0A262FCE
:100E800083162008831203179A0083160313210880
:100E9000831203179B009C0122228312031336083E
:100EA0005D06031D582F52085E06031D582F11249E
:100EB0005A2FE52CF62C0530B3000130B600013076
:100EC000D200E1010330B100FF3003179500742315
:100ED0004230950019309600033097009801B923ED
:100EE0003330FB00BB30FC00DF30FD00FD0B762F04
:100EF000FC0B762FFB0B762F00000000F001F101B8
:100F0000802FFF3FFF3FFF3FFF3FFF3F4634493405
:100F10004D3420344434453420344A344F3447343B
:100F20004F3420342134213421340034003403344C
:100F300053340534C8340034053453344E3441340A
:100F40004B3445342034473441344D344534003437
:100F500056344F344334CA342034563445344E3436
:100F60004334453455342034213421342134003481
:100F70000534533463346F34723465343A34203476
:100F8000303430340034FF3F203084003D30831251
:100F90000313F0008630DF000730E000B2240800C1
:100FA000FF3FFF3FFF3FFF3FFF3FFF3FFF3FFF3F51
:100FB000FF3FFF3FFF3FFF3FFF3FFF3FFF3FFF3F41
:100FC000FF3FFF3FFF3FFF3FFF3FFF3FFF3FFF3F31
:100FD000FF3FFF3FFF3FFF3FFF3FFF3FFF3FFF3F21
:100FE000FF3FFF3FFF3FFF3FFF3FFF3FFF3FFF3F11
:100FF000FF3FFF3FFF3FFF3FFF3FFF3FFF3FFF3F01
:1010000000340034003400340034003400345F34E1
:10101000003400340034073400340734003414340E
:101020007F3414347F34143424342A347F342A3403
:10103000123423341334083464346234363449347B
:101040005534223450340034053403340034003431
:1010500000341C342234413400340034413422340E
:101060001C34003408342A341C342A34083408343C
:1010700008343E34083408340034503430340034FA
:101080000034083408340834083408340034303468
:101090003034003400342034103408340434023442
:1010A0003E345134493445343E34003442347F3484
:1010B00040340034423461345134493446342134AC
:1010C000413445344B3431341834143412347F34C1
:1010D0001034273445344534453439343C344A34AB
:1010E000493449343034013471340934053403341B
:1010F0003634493449344934363406344934493471
:1011000029341E340034363436340034003400348C
:101110005634363400340034003408341434223465
:101120004134143414341434143414344134223417
:101130001434083400340234013451340934063490
:1011400032344934793441343E347E3411341134EC
:1011500011347E347F3449344934493436343E3492
:1011600041344134413422347F34413441342234D7
:101170001C347F3449344934493441347F34093490
:101180000934013401343E34413441345134323471
:101190007F340834083408347F34003441347F34D9
:1011A000413400342034403441343F3401347F34FE
:1011B00008341434223441347F34403440344034D1
:1011C00040347F340234043402347F347F340434B6
:1011D000083410347F343E344134413441343E3499
:1011E0007F3409340934093406343E3441345134EF
:1011F00021345E347F34093419342934463446347A
:101200004934493449343134013401347F340134B0
:1012100001343F344034403440343F341F342034B0
:10122000403420341F347F342034183420347F3449
:101230006334143408341434633403340434783499
:101240000434033461345134493445344334003474
:1012500000347F34413441340234043408341034CF
:101260002034413441347F340034003404340234B7
:101270000134023404344034403440344034403487
:1012800000340134023404340034203454345434EF
:10129000543478347F344834443444343834383423
:1012A00044344434443420343834443444344834AA
:1012B0007F343834543454345434183408347E343D
:1012C00009340134023408341434543454343C3472
:1012D0007F340834043404347834003444347D34A6
:1012E000403400342034403444343D34003400343D
:1012F0007F34103428344434003441347F34403453
:1013000000347C3404341834043478347C340834A5
:101310000434043478343834443444344434383471
:101320007C3414341434143408340834143414342D
:1013300018347C347C34083404340434083448349D
:10134000543454345434203404343F34443440341A
:1013500020343C344034403420347C341C34203439
:10136000403420341C343C344034303440343C3439
:10137000443428341034283444340C345034503439
:1013800050343C344434643454344C3444340034A5
:101390000834363441340034003400347F340034AF
:1013A000003400344134363408340034083408340E
:1013B0002A341C34083408341C342A3408340834E1
:02400E004A2F37
:00000001FF
