:100000008A150028FF3F0D3083120313FD00FD0BFE
:10001000072808000000000000000000080003207E
:1000200006160320061208007F30831203171A05F4
:10003000F10071089A00711F2028061486102228EA
:1000400006108614080083120313FB01FA01F9015C
:100050008030F800F10CF00C031C37287408F90705
:1000600075080318750FFA070318FB0A0310F01F31
:100070003F287408FA0775080318750FFB07FB0C77
:10008000FA0CF90CF80C031C2A287B08F3007A08F8
:10009000F2007908F1007808F000080083120313D9
:1000A00006118611B83003171A04031387000F20B6
:1000B0000800710DF80DF90D7408F8027508031C9D
:1000C000750FF902F00DF10D0F30FC00710DF80DF8
:1000D000F90D7408701C7228F8027508031C750F5E
:1000E000F9027728F80775080318750FF907F00D5E
:1000F000F10DFC0B6628701883287408F807750842
:100100000318750FF907000008008312031322304B
:10011000FC00F801F901FA01FB01FC030319BB28FB
:100120000310FB0CFA0CF90CF80CF30CF20CF10CAC
:10013000F00C031C8D28FC030319AD287408F80784
:1001400075080318750FF90776080318760FFA0774
:1001500077080318770FFB0791287408F8077508CC
:100160000318750FF90776080318760FFA07770852
:100170000318770FFB0708008312031306120615F6
:10018000861103171A08031387000F200800831233
:10019000031360088A005F088200080083120317B7
:1001A0001A080313E40003171B080313E500E60114
:1001B000E7010130E30008007F30831203171A05BE
:1001C000F00070089A0006118611BF30F005700823
:1001D0009A00701770089A007008031387000F20A8
:1001E0000800803083120313F0007008073E84007B
:1001F000FF3080000A200A20061506128615061612
:100200000320070803179A00061286110A200A2005
:100210008030F0007008073E840080011A08F0006A
:100220000800831203137408003A031D202975087F
:10023000003A031D2029FF30F0007F30F1007929BA
:1002400083120313FD01F901F80171087004031909
:10025000003471087506FA00FA1BFD09FB01F51F51
:100260003629F409F509F40A0319F50AF11F3D29A5
:10027000F009F109F00A0319F10A71087504FA008E
:10028000FA1B522959207B186529FD1F0034F009FB
:10029000F109F00A0319F10AF809F909F80A031932
:1002A000F90A0034F51F6129F11B5D297108F90075
:1002B0007008F800F101F0014529F101F001F00AA0
:1002C0000034F109F009FB0A4229F80A0319F90A76
:1002D00074087802031D452975087902031D452914
:1002E000F901F801F00A0319F10AF11F452900008C
:1002F000FF340800831203171208073C03188129F2
:10030000212A0313690803171002F00003136A0877
:10031000031C013EF101F1026808F400F5012320FD
:100320007008031798007108990011089A00DC20E2
:10033000031712089A004E2003179401031368084C
:10034000031714020318FC2911087F3C0318A9297C
:10035000212A11089A00142012089A004E2003172F
:1003600011089A00DC20F12070089500F120700837
:10037000950011089A00142012089A004E200317C5
:1003800011089A00DC200317180803136B07F0000C
:100390006C080318013E03171907F10070080313D6
:1003A000DF007108E000C7208A110A12F00070080F
:1003B00003179600980A0319990A70099700E9290A
:1003C00017089500F52916089500F52916089506D1
:1003D000F5291308003A0319E0291308013A031913
:1003E000E3291308023A0319E62915089A00BC20EC
:1003F0000317910A940A9E2911089A0014201208E2
:100400009A004E20031711089A00DC20FF300317D2
:1004100096009701182A1608950016089A00BC2025
:10042000212A03171708950017089A00BC20212AD3
:1004300003171308003A03190B2A1308013A03198A
:10044000112A08000030831203171002031C352AFA
:1004500010087F3C031C352A00301102031C352A8A
:1004600011083F3C031C352A362A872A10089A00B7
:10047000142011089A009A0C9A139A0C9A139A0C49
:100480009A134E20031710089A00DC20F120700800
:100490009500F1207008950011089A009A0C9A13A3
:1004A0009A0C9A139A0C9A134E20031710089A006C
:1004B000DC20073003171105F00070089300700866
:1004C000F1000130F000710803196A2AF00D701074
:1004D000FF3E642A7008930070099400782A14087B
:1004E0009505842A13089504842A13089506842AFE
:1004F0001208003A03196F2A1208013A0319722AE6
:100500001208023A0319752A15089A00BC2008003F
:10051000831203136308031D932A013003179A0003
:1005200000309B00CE206408F0006508F1006608EA
:10053000F2006708F3006D30F4004E30F500C6306D
:10054000F6004130F70085203930F5003030F600F4
:10055000F701F8017008F50771080318710FF60725
:1005600072080318720FF70773080318730FF80760
:100570007708F0007808F1000030F81BFF30F20037
:10058000F300FF30F0057F30F1050030F205F30590
:100590007008E4007108E5007208E6007308E700DF
:1005A00008000030831603136D02031CDC2A6D085B
:1005B0003F3C031CDC2ADD2A162B00306B0203189B
:1005C000E22AEB016B087F3C0318E82A7F30EB003E
:1005D00000306C020318ED2AEC016C087F3C031814
:1005E000F32A7F30EC006B086C020318FD2A6B08BD
:1005F000EF006C08EB006F08EC006B086C02031C4A
:10060000162B6B08831203179000831603136D08D3
:10061000831203179100831603136E0883120317C6
:100620009200222283160313EB0AFD2A0800882277
:100630000830F4000130F5001121700ADD00882235
:10064000BC30F4000230F5001121F00A7008DE0021
:100650005D0803179000700891000130920022227B
:1006600008000030831603136D02031C3C2B6D0839
:100670007F3C031C3C2B3D2B762B00306B02031878
:10068000422BEB016B083F3C0318482B3F30EB003B
:1006900000306C0203184D2BEC016C083F3C031832
:1006A000532B3F30EC006B086C0203185D2B6B087A
:1006B000EF006C08EB006F08EC006B086C02031C89
:1006C000762B6D08831203179000831603136B08B3
:1006D000831203179100831603136E088312031706
:1006E0009200222283160313EB0A5D2B080083126B
:1006F0000313F8010830FC00700DF80D7408F802BF
:100700000318842BF8070310F00DFC0B7C2B08005A
:1007100083120313061086148316ED016D08073C3F
:10072000031CA72B6D08831203179A004E20831613
:10073000EC016C083F3C031CA52B6B0883120317CC
:100740009A00BC208316EC0A992BED0A8E2B83129B
:10075000861006148316ED016D08073C031CC52B9B
:100760006D08831203179A004E208316EC016C0863
:100770003F3C031CC32B6B08831203179A00BC2059
:100780008316EC0AB72BED0AAC2B08008822083040
:10079000F4000130F5001121700AB6008822BC3047
:1007A000F4000230F5001121700AD200080083160F
:1007B0000313EF0183126208003A031DEB2B05308F
:1007C000E8000730ED001330EB000530EC0020307E
:1007D000E9000030EA0083166F086B078400000808
:1007E0000319152C6F086B07840000088312031788
:1007F0009000831603136C0883120317910083166D
:1008000003136D08831203179200831603136E08F7
:100810008312031793007A2183120313680AF000EE
:1008200070088316EC07EF0AEB2B080083160313FE
:100830006608EB006808EC006708ED006A08EE0047
:10084000D1226608EB006808EC006908ED006A0830
:10085000EE00D1226708EB006908EC006608ED00A5
:100860006A08EE0031236708EB006908EC006808AD
:10087000ED006A08EE003123080083120313B30A67
:10088000172383120313E10A073035078316E600A6
:100890000A30F40083126108F00077233030F0074B
:1008A00083166608840070088000083083123507BC
:1008B0008316E6000A30F40083126108F000772303
:1008C0007808F0003030F00783166608840070085E
:1008D0008000831235088316EB004630EC000730A9
:1008E000ED000130EE00D72305308312B002031C67
:1008F000B1030800831603136708003C031D822C14
:100900006608003C0318922C0630FC003030FD00D5
:10091000FD0B882CFC0B882C00000130E602031C28
:10092000E7037A2C0800053083120313B300C623B3
:10093000E101083035078400303080000330B40016
:10094000FF308316EB0088232030EB001930EC00D9
:100950000330ED00EE01D7232930FB009630FC0078
:100960007F30FD00FD0BB22CFC0BB22CFB0BB22C2C
:10097000C6238316EB01882301308312B2000800DE
:1009800083120313E20183168612061206118611E2
:1009900006108610831286128030F0007008073E21
:1009A00084008001061186110610861486163F30D9
:1009B00087000F20C03087000F20061486103F30BC
:1009C00087000F20C03087000F200800C7208A1141
:1009D0000A128000840ADF0A0319E00AF003031DEB
:1009E000E62C0800FF3083160313EB008823373012
:1009F000EB001930EC000330ED00EE01D723153089
:100A0000FB004B30FC00BE30FD00FD0B052DFC0B48
:100A1000052DFB0B052D0000EB0188231723831206
:100A20000313B201080000340034003400340034F1
:100A3000003400345F3400340034003407340034B0
:100A40000734003414347F3414347F3414342434A1
:100A50002A347F342A34123423341334083464346F
:100A60006234363449345534223450340034053439
:100A700003340034003400341C3422344134003454
:100A80000034413422341C34003408342A341C34F9
:100A90002A340834083408343E3408340834003426
:100AA0005034303400340034083408340834083406
:100AB00008340034303430340034003420341034FE
:100AC0000834043402343E345134493445343E341D
:100AD000003442347F344034003442346134513481
:100AE000493446342134413445344B34313418349C
:100AF000143412347F3410342734453445344534AB
:100B000039343C344A344934493430340134713452
:100B100009340534033436344934493449343634DD
:100B200006344934493429341E34003436343634DA
:100B30000034003400345634363400340034003489
:100B40000834143422344134143414341434143436
:100B5000143441342234143408340034023401345F
:100B600051340934063432344934793441343E3412
:100B70007E341134113411347E347F344934493495
:100B8000493436343E3441344134413422347F34A4
:100B90004134413422341C347F344934493449349B
:100BA00041347F3409340934013401343E34413452
:100BB0004134513432347F340834083408347F34BB
:100BC000003441347F3441340034203440344134E3
:100BD0003F3401347F3408341434223441347F34B8
:100BE00040344034403440347F34023404340234DE
:100BF0007F347F340434083410347F343E3441343D
:100C0000413441343E347F340934093409340634E4
:100C10003E344134513421345E347F340934193444
:100C20002934463446344934493449343134013462
:100C300001347F34013401343F3440344034403493
:100C40003F341F342034403420341F347F34203468
:100C5000183420347F346334143408341434633447
:100C60000334043478340434033461345134493463
:100C700045344334003400347F3441344134023449
:100C80000434083410342034413441347F34003487
:100C90000034043402340134023404344034403427
:100CA00040344034403400340134023404340034DD
:100CB000203454345434543478347F3448344434F5
:100CC00044343834383444344434443420343834AC
:100CD0004434443448347F343834543454345434F1
:100CE000183408347E34093401340234083414349E
:100CF000543454343C347F34083404340434783469
:100D0000003444347D34403400342034403444349E
:100D10003D34003400347F341034283444340034FB
:100D200041347F34403400347C3404341834043487
:100D300078347C340834043404347834383444341B
:100D40004434443438347C34143414341434083483
:100D500008341434143418347C347C3408340434A7
:100D6000043408344834543454345434203404346F
:100D70003F344434403420343C3440344034203414
:100D80007C341C342034403420341C343C34403413
:100D9000303440343C34443428341034283444341F
:100DA0000C345034503450343C344434643454346F
:100DB0004C34443400340834363441340034003484
:100DC00000347F3400340034003441343634083485
:100DD0000034083408342A341C34083408341C34F1
:100DE0002A3408340834463449344D3420344434E9
:100DF000453420344A344F3447344F34203421347E
:100E0000213421340034C834003400340534033430
:100E10005334053453344E3441344B344534203448
:100E2000473441344D344534003456344F34433420
:100E30003F342034563445344E34433445345534ED
:100E400020342134213421340034053450346F34BB
:100E50006E3474346F3473343A3430343034003494
:100E6000203084003D3083120313F000F330DF00A4
:100E70000630E000E6240800FF3FFF3FFF3FFF3F52
:100E8000FF3FFF3FFF3FFF3FFF3FFF3FFF3FFF3F72
:100E9000FF3FFF3FFF3FFF3FFF3FFF3FFF3FFF3F62
:100EA000FF3FFF3FFF3FFF3FFF3FFF3FFF3FFF3F52
:100EB000FF3FFF3FFF3FFF3FFF3FFF3FFF3FFF3F42
:100EC000FF3FFF3FFF3FFF3FFF3FFF3FFF3FFF3F32
:100ED000FF3FFF3FFF3FFF3FFF3FFF3FFF3FFF3F22
:100EE000FF3FFF3FFF3FFF3FFF3FFF3FFF3FFF3F12
:100EF000FF3FFF3FFF3FFF3FFF3FFF3FFF3FFF3F02
:100F0000FF3FFF3FFF3FFF3FFF3FFF3FFF3FFF3FF1
:100F1000FF3FFF3FFF3FFF3FFF3FFF3FFF3FFF3FE1
:100F2000FF3FFF3FFF3FFF3FFF3FFF3FFF3FFF3FD1
:100F3000FF3FFF3FFF3FFF3FFF3FFF3FFF3FFF3FC1
:100F4000FF3FFF3FFF3FFF3FFF3FFF3FFF3FFF3FB1
:100F5000FF3FFF3FFF3FFF3FFF3FFF3FFF3FFF3FA1
:100F6000FF3FFF3FFF3FFF3FFF3FFF3FFF3FFF3F91
:100F7000FF3FFF3FFF3FFF3FFF3FFF3FFF3FFF3F81
:100F8000FF3FFF3FFF3FFF3FFF3FFF3FFF3FFF3F71
:100F9000FF3FFF3FFF3FFF3FFF3FFF3FFF3FFF3F61
:100FA000FF3FFF3FFF3FFF3FFF3FFF3FFF3FFF3F51
:100FB000FF3FFF3FFF3FFF3FFF3FFF3FFF3FFF3F41
:100FC000FF3FFF3FFF3FFF3FFF3FFF3FFF3FFF3F31
:100FD000FF3FFF3FFF3FFF3FFF3FFF3FFF3FFF3F21
:100FE000FF3FFF3FFF3FFF3FFF3FFF3FFF3FFF3F11
:100FF000FF3FFF3FFF3FFF3FFF3FFF3FFF3FFF3F01
:101000008A1130278A15FF308316031388008A114E
:10101000C0248A15C830B000B1018A11F2248A15A3
:101020008316E601E7017F30E8003230E900013045
:10103000EA008A1116248A1505308312B30033089A
:101040001E3C031CB22A3208031DB22A081E2C289B
:101050008A1193248A150A28881D30280230B4008A
:10106000081D34280430B400881C38280330B4002C
:10107000081C3C280530B40030088316E6008312B3
:1010800031088316E7008A117A248A15612A8312AF
:10109000B6036E08033A0319522801303602031CC6
:1010A000522856288A1193248A15732A0130330254
:1010B000F300F401031CF4037308F0007408F1005A
:1010C000F00DF10D7010A030F007700A8400520886
:1010D000800001303302F300F401031CF4037308B1
:1010E000F0007408F100F00DF10D70107008A03ED2
:1010F000840036088000EF0101303302F100F20174
:10110000031CF2038030F000803072067002031D71
:101110008B2871086F020318CB286F08F000F00DC0
:101120007010A030F007700AF5006F08013EF30060
:10113000F4010318F40A7308F0007408F100F00DCC
:10114000F10D7010A030F007700A84000008F00064
:1011500075088400700880006F08F000F00D7010B2
:101160007008A03EF5006F08013EF300F40103187B
:10117000F40A7308F0007408F100F00DF10D70101E
:101180007008A03E84000008F00075088400700814
:101190008000EF0A7C283408EE00732AD2036E0820
:1011A000053A0319D82801305202031CD828DC283C
:1011B0008A1193248A15732A01303302F300F40153
:1011C000031CF4037308F0007408F100F00DF10D36
:1011D0007010A030F007700A8400520880000130BF
:1011E0003302F300F401031CF4037308F0007408E5
:1011F000F100F00DF10D70107008A03E840036086B
:101200008000EF0101303302F100F201031CF20310
:101210008030F000803072067002031D11297108C1
:101220006F02031851296F08F000F00D7010A03004
:10123000F007700AF5006F08013EF300F40103188F
:10124000F40A7308F0007408F100F00DF10D70104D
:10125000A030F007700A84000008F00075088400D0
:10126000700880006F08F000F00D70107008A03E4C
:10127000F5006F08013EF300F4010318F40A730847
:10128000F0007408F100F00DF10D70107008A03E30
:1012900084000008F0007508840070088000EF0AE0
:1012A00002293408EE00732AD20A6E08043A0319A0
:1012B0005E295208313C031C5E2962298A1193245D
:1012C0008A15732A01303302F300F401031CF4037E
:1012D0007308F0007408F100F00DF10D7010A030EB
:1012E000F007700A84005208800001303302F300D6
:1012F000F401031CF4037308F0007408F100F00D0E
:10130000F10D70107008A03E840036088000EF01D7
:1013100001303302F100F201031CF2038030F000CF
:10132000803072067002031D972971086F0203183E
:10133000D7296F08F000F00D7010A030F007700A88
:10134000F5006F08013EF300F4010318F40A730876
:10135000F0007408F100F00DF10D7010A030F007EE
:10136000700A84000008F00075088400700880008E
:101370006F08F000F00D70107008A03EF5006F08C7
:10138000013EF300F4010318F40A7308F000740836
:10139000F100F00DF10D70107008A03E84000008FF
:1013A000F0007508840070088000EF0A882934086E
:1013B000EE00732AB60A6E08023A0319E4293608C9
:1013C0007E3C031CE429E8298A1193248A15732A98
:1013D00001303302F300F401031CF4037308F0003E
:1013E0007408F100F00DF10D7010A030F007700AD4
:1013F00084005208800001303302F300F401031C22
:10140000F4037308F0007408F100F00DF10D701092
:101410007008A03E840036088000EF0101303302DE
:10142000F100F201031CF2038030F00080307206FC
:101430007002031D1D2A71086F0203185D2A6F08D0
:10144000F000F00D70107008A03EF5006F08013E2E
:10145000F300F4010318F40A7308F0007408F100B3
:10146000F00DF10D70107008A03E84000008F0002F
:1014700075088400700880006F08F000F00D70108F
:10148000A030F007700AF5006F08013EF300F40188
:101490000318F40A7308F0007408F100F00DF10D60
:1014A0007010A030F007700A84000008F000750882
:1014B000840070088000EF0A0E2A3408EE00732AB8
:1014C000732A83123408023A031947283408043A6D
:1014D0000319CE283408053A031954293408033A6D
:1014E0000319DA29602A3208031DB02AEF013308F4
:1014F0006F020318932A6F08F000F00D7010A030EF
:10150000F00770088400000803179000700A840038
:1015100000089100013092008A1122228A1583125C
:101520000313EF0A772A831620088312031790000B
:1015300083160313210883120317910092018A1165
:1015400022228A158312031336085D06031DAF2A73
:1015500052085E06031DAF2A8A113D248A15B12A5E
:101560000A281F280530B3000130B6000130D20030
:10157000E1010330B400FF308316EB008A118823A9
:101580008A154230EB001930EC000330ED00EE011B
:101590008A11D7238A153330FB00BB30FC00DF30C3
:1015A000FD00FD0BD12AFC0BD12AFB0BD12A000038
:1015B0000000F001F101DB2AFF3FFF3FFF3FFF3F4B
:02400E004A2F37
:00000001FF
